{
  "contractName": "NftMarket",
  "abi": [
    {
      "inputs": [],
      "stateMutability": "nonpayable",
      "type": "constructor"
    },
    {
      "anonymous": false,
      "inputs": [
        {
          "indexed": true,
          "internalType": "address",
          "name": "owner",
          "type": "address"
        },
        {
          "indexed": true,
          "internalType": "address",
          "name": "approved",
          "type": "address"
        },
        {
          "indexed": true,
          "internalType": "uint256",
          "name": "tokenId",
          "type": "uint256"
        }
      ],
      "name": "Approval",
      "type": "event"
    },
    {
      "anonymous": false,
      "inputs": [
        {
          "indexed": true,
          "internalType": "address",
          "name": "owner",
          "type": "address"
        },
        {
          "indexed": true,
          "internalType": "address",
          "name": "operator",
          "type": "address"
        },
        {
          "indexed": false,
          "internalType": "bool",
          "name": "approved",
          "type": "bool"
        }
      ],
      "name": "ApprovalForAll",
      "type": "event"
    },
    {
      "anonymous": false,
      "inputs": [
        {
          "indexed": false,
          "internalType": "uint256",
          "name": "tokenId",
          "type": "uint256"
        },
        {
          "indexed": false,
          "internalType": "uint256",
          "name": "price",
          "type": "uint256"
        },
        {
          "indexed": false,
          "internalType": "address",
          "name": "creator",
          "type": "address"
        },
        {
          "indexed": false,
          "internalType": "bool",
          "name": "isListed",
          "type": "bool"
        }
      ],
      "name": "NftItemCreated",
      "type": "event"
    },
    {
      "anonymous": false,
      "inputs": [
        {
          "indexed": true,
          "internalType": "address",
          "name": "previousOwner",
          "type": "address"
        },
        {
          "indexed": true,
          "internalType": "address",
          "name": "newOwner",
          "type": "address"
        }
      ],
      "name": "OwnershipTransferred",
      "type": "event"
    },
    {
      "anonymous": false,
      "inputs": [
        {
          "indexed": true,
          "internalType": "address",
          "name": "from",
          "type": "address"
        },
        {
          "indexed": true,
          "internalType": "address",
          "name": "to",
          "type": "address"
        },
        {
          "indexed": true,
          "internalType": "uint256",
          "name": "tokenId",
          "type": "uint256"
        }
      ],
      "name": "Transfer",
      "type": "event"
    },
    {
      "inputs": [
        {
          "internalType": "address",
          "name": "to",
          "type": "address"
        },
        {
          "internalType": "uint256",
          "name": "tokenId",
          "type": "uint256"
        }
      ],
      "name": "approve",
      "outputs": [],
      "stateMutability": "nonpayable",
      "type": "function"
    },
    {
      "inputs": [
        {
          "internalType": "address",
          "name": "owner",
          "type": "address"
        }
      ],
      "name": "balanceOf",
      "outputs": [
        {
          "internalType": "uint256",
          "name": "",
          "type": "uint256"
        }
      ],
      "stateMutability": "view",
      "type": "function",
      "constant": true
    },
    {
      "inputs": [
        {
          "internalType": "uint256",
          "name": "tokenId",
          "type": "uint256"
        }
      ],
      "name": "getApproved",
      "outputs": [
        {
          "internalType": "address",
          "name": "",
          "type": "address"
        }
      ],
      "stateMutability": "view",
      "type": "function",
      "constant": true
    },
    {
      "inputs": [
        {
          "internalType": "address",
          "name": "owner",
          "type": "address"
        },
        {
          "internalType": "address",
          "name": "operator",
          "type": "address"
        }
      ],
      "name": "isApprovedForAll",
      "outputs": [
        {
          "internalType": "bool",
          "name": "",
          "type": "bool"
        }
      ],
      "stateMutability": "view",
      "type": "function",
      "constant": true
    },
    {
      "inputs": [],
      "name": "listingPrice",
      "outputs": [
        {
          "internalType": "uint256",
          "name": "",
          "type": "uint256"
        }
      ],
      "stateMutability": "view",
      "type": "function",
      "constant": true
    },
    {
      "inputs": [],
      "name": "name",
      "outputs": [
        {
          "internalType": "string",
          "name": "",
          "type": "string"
        }
      ],
      "stateMutability": "view",
      "type": "function",
      "constant": true
    },
    {
      "inputs": [],
      "name": "owner",
      "outputs": [
        {
          "internalType": "address",
          "name": "",
          "type": "address"
        }
      ],
      "stateMutability": "view",
      "type": "function",
      "constant": true
    },
    {
      "inputs": [
        {
          "internalType": "uint256",
          "name": "tokenId",
          "type": "uint256"
        }
      ],
      "name": "ownerOf",
      "outputs": [
        {
          "internalType": "address",
          "name": "",
          "type": "address"
        }
      ],
      "stateMutability": "view",
      "type": "function",
      "constant": true
    },
    {
      "inputs": [],
      "name": "renounceOwnership",
      "outputs": [],
      "stateMutability": "nonpayable",
      "type": "function"
    },
    {
      "inputs": [
        {
          "internalType": "address",
          "name": "from",
          "type": "address"
        },
        {
          "internalType": "address",
          "name": "to",
          "type": "address"
        },
        {
          "internalType": "uint256",
          "name": "tokenId",
          "type": "uint256"
        }
      ],
      "name": "safeTransferFrom",
      "outputs": [],
      "stateMutability": "nonpayable",
      "type": "function"
    },
    {
      "inputs": [
        {
          "internalType": "address",
          "name": "from",
          "type": "address"
        },
        {
          "internalType": "address",
          "name": "to",
          "type": "address"
        },
        {
          "internalType": "uint256",
          "name": "tokenId",
          "type": "uint256"
        },
        {
          "internalType": "bytes",
          "name": "data",
          "type": "bytes"
        }
      ],
      "name": "safeTransferFrom",
      "outputs": [],
      "stateMutability": "nonpayable",
      "type": "function"
    },
    {
      "inputs": [
        {
          "internalType": "address",
          "name": "operator",
          "type": "address"
        },
        {
          "internalType": "bool",
          "name": "approved",
          "type": "bool"
        }
      ],
      "name": "setApprovalForAll",
      "outputs": [],
      "stateMutability": "nonpayable",
      "type": "function"
    },
    {
      "inputs": [
        {
          "internalType": "bytes4",
          "name": "interfaceId",
          "type": "bytes4"
        }
      ],
      "name": "supportsInterface",
      "outputs": [
        {
          "internalType": "bool",
          "name": "",
          "type": "bool"
        }
      ],
      "stateMutability": "view",
      "type": "function",
      "constant": true
    },
    {
      "inputs": [],
      "name": "symbol",
      "outputs": [
        {
          "internalType": "string",
          "name": "",
          "type": "string"
        }
      ],
      "stateMutability": "view",
      "type": "function",
      "constant": true
    },
    {
      "inputs": [
        {
          "internalType": "uint256",
          "name": "tokenId",
          "type": "uint256"
        }
      ],
      "name": "tokenURI",
      "outputs": [
        {
          "internalType": "string",
          "name": "",
          "type": "string"
        }
      ],
      "stateMutability": "view",
      "type": "function",
      "constant": true
    },
    {
      "inputs": [
        {
          "internalType": "address",
          "name": "from",
          "type": "address"
        },
        {
          "internalType": "address",
          "name": "to",
          "type": "address"
        },
        {
          "internalType": "uint256",
          "name": "tokenId",
          "type": "uint256"
        }
      ],
      "name": "transferFrom",
      "outputs": [],
      "stateMutability": "nonpayable",
      "type": "function"
    },
    {
      "inputs": [
        {
          "internalType": "address",
          "name": "newOwner",
          "type": "address"
        }
      ],
      "name": "transferOwnership",
      "outputs": [],
      "stateMutability": "nonpayable",
      "type": "function"
    },
    {
      "inputs": [
        {
          "internalType": "uint256",
          "name": "newPrice",
          "type": "uint256"
        }
      ],
      "name": "setListingPrice",
      "outputs": [],
      "stateMutability": "nonpayable",
      "type": "function"
    },
    {
      "inputs": [
        {
          "internalType": "uint256",
          "name": "tokenId",
          "type": "uint256"
        }
      ],
      "name": "getNftItem",
      "outputs": [
        {
          "components": [
            {
              "internalType": "uint256",
              "name": "tokenId",
              "type": "uint256"
            },
            {
              "internalType": "uint256",
              "name": "price",
              "type": "uint256"
            },
            {
              "internalType": "address",
              "name": "creator",
              "type": "address"
            },
            {
              "internalType": "bool",
              "name": "isListed",
              "type": "bool"
            }
          ],
          "internalType": "struct NftMarket.NftItem",
          "name": "",
          "type": "tuple"
        }
      ],
      "stateMutability": "view",
      "type": "function",
      "constant": true
    },
    {
      "inputs": [],
      "name": "listedItemsCount",
      "outputs": [
        {
          "internalType": "uint256",
          "name": "",
          "type": "uint256"
        }
      ],
      "stateMutability": "view",
      "type": "function",
      "constant": true
    },
    {
      "inputs": [
        {
          "internalType": "string",
          "name": "tokenURI",
          "type": "string"
        }
      ],
      "name": "tokenURIExists",
      "outputs": [
        {
          "internalType": "bool",
          "name": "",
          "type": "bool"
        }
      ],
      "stateMutability": "view",
      "type": "function",
      "constant": true
    },
    {
      "inputs": [],
      "name": "totalSupply",
      "outputs": [
        {
          "internalType": "uint256",
          "name": "",
          "type": "uint256"
        }
      ],
      "stateMutability": "view",
      "type": "function",
      "constant": true
    },
    {
      "inputs": [
        {
          "internalType": "uint256",
          "name": "index",
          "type": "uint256"
        }
      ],
      "name": "tokenByIndex",
      "outputs": [
        {
          "internalType": "uint256",
          "name": "",
          "type": "uint256"
        }
      ],
      "stateMutability": "view",
      "type": "function",
      "constant": true
    },
    {
      "inputs": [
        {
          "internalType": "address",
          "name": "owner",
          "type": "address"
        },
        {
          "internalType": "uint256",
          "name": "index",
          "type": "uint256"
        }
      ],
      "name": "tokenOfOwnerByIndex",
      "outputs": [
        {
          "internalType": "uint256",
          "name": "",
          "type": "uint256"
        }
      ],
      "stateMutability": "view",
      "type": "function",
      "constant": true
    },
    {
      "inputs": [],
      "name": "getAllNftsOnSale",
      "outputs": [
        {
          "components": [
            {
              "internalType": "uint256",
              "name": "tokenId",
              "type": "uint256"
            },
            {
              "internalType": "uint256",
              "name": "price",
              "type": "uint256"
            },
            {
              "internalType": "address",
              "name": "creator",
              "type": "address"
            },
            {
              "internalType": "bool",
              "name": "isListed",
              "type": "bool"
            }
          ],
          "internalType": "struct NftMarket.NftItem[]",
          "name": "",
          "type": "tuple[]"
        }
      ],
      "stateMutability": "view",
      "type": "function",
      "constant": true
    },
    {
      "inputs": [],
      "name": "getOwnedNfts",
      "outputs": [
        {
          "components": [
            {
              "internalType": "uint256",
              "name": "tokenId",
              "type": "uint256"
            },
            {
              "internalType": "uint256",
              "name": "price",
              "type": "uint256"
            },
            {
              "internalType": "address",
              "name": "creator",
              "type": "address"
            },
            {
              "internalType": "bool",
              "name": "isListed",
              "type": "bool"
            }
          ],
          "internalType": "struct NftMarket.NftItem[]",
          "name": "",
          "type": "tuple[]"
        }
      ],
      "stateMutability": "view",
      "type": "function",
      "constant": true
    },
    {
      "inputs": [
        {
          "internalType": "string",
          "name": "tokenURI",
          "type": "string"
        },
        {
          "internalType": "uint256",
          "name": "price",
          "type": "uint256"
        }
      ],
      "name": "mintToken",
      "outputs": [
        {
          "internalType": "uint256",
          "name": "",
          "type": "uint256"
        }
      ],
      "stateMutability": "payable",
      "type": "function",
      "payable": true
    },
    {
      "inputs": [
        {
          "internalType": "uint256",
          "name": "tokenId",
          "type": "uint256"
        }
      ],
      "name": "buyNft",
      "outputs": [],
      "stateMutability": "payable",
      "type": "function",
      "payable": true
    },
    {
      "inputs": [
        {
          "internalType": "uint256",
          "name": "tokenId",
          "type": "uint256"
        },
        {
          "internalType": "uint256",
          "name": "newPrice",
          "type": "uint256"
        }
      ],
      "name": "placeNftOnSale",
      "outputs": [],
      "stateMutability": "payable",
      "type": "function",
      "payable": true
    }
  ],
  "bytecode": "0x60806040526658d15e176280006008553480156200001c57600080fd5b506040518060400160405280600c81526020017f4372656174757265734e465400000000000000000000000000000000000000008152506040518060400160405280600481526020017f434e46540000000000000000000000000000000000000000000000000000000081525081600090816200009a91906200041d565b508060019081620000ac91906200041d565b505050620000cf620000c3620000d560201b60201c565b620000dd60201b60201c565b62000504565b600033905090565b6000600760009054906101000a900473ffffffffffffffffffffffffffffffffffffffff16905081600760006101000a81548173ffffffffffffffffffffffffffffffffffffffff021916908373ffffffffffffffffffffffffffffffffffffffff1602179055508173ffffffffffffffffffffffffffffffffffffffff168173ffffffffffffffffffffffffffffffffffffffff167f8be0079c531659141344cd1fd0a4f28419497f9722a3daafe3b4186f6b6457e060405160405180910390a35050565b600081519050919050565b7f4e487b7100000000000000000000000000000000000000000000000000000000600052604160045260246000fd5b7f4e487b7100000000000000000000000000000000000000000000000000000000600052602260045260246000fd5b600060028204905060018216806200022557607f821691505b6020821081036200023b576200023a620001dd565b5b50919050565b60008190508160005260206000209050919050565b60006020601f8301049050919050565b600082821b905092915050565b600060088302620002a57fffffffffffffffffffffffffffffffffffffffffffffffffffffffffffffffff8262000266565b620002b1868362000266565b95508019841693508086168417925050509392505050565b6000819050919050565b6000819050919050565b6000620002fe620002f8620002f284620002c9565b620002d3565b620002c9565b9050919050565b6000819050919050565b6200031a83620002dd565b62000332620003298262000305565b84845462000273565b825550505050565b600090565b620003496200033a565b620003568184846200030f565b505050565b5b818110156200037e57620003726000826200033f565b6001810190506200035c565b5050565b601f821115620003cd57620003978162000241565b620003a28462000256565b81016020851015620003b2578190505b620003ca620003c18562000256565b8301826200035b565b50505b505050565b600082821c905092915050565b6000620003f260001984600802620003d2565b1980831691505092915050565b60006200040d8383620003df565b9150826002028217905092915050565b6200042882620001a3565b67ffffffffffffffff811115620004445762000443620001ae565b5b6200045082546200020c565b6200045d82828562000382565b600060209050601f83116001811462000495576000841562000480578287015190505b6200048c8582620003ff565b865550620004fc565b601f198416620004a58662000241565b60005b82811015620004cf57848901518255600182019150602085019450602081019050620004a8565b86831015620004ef5784890151620004eb601f891682620003df565b8355505b6001600288020188555050505b505050505050565b614a7d80620005146000396000f3fe6080604052600436106101c25760003560e01c80636f1a0af5116100f7578063a22cb46511610095578063c87b56dd11610064578063c87b56dd14610651578063ccb4918d1461068e578063e985e9c5146106b9578063f2fde38b146106f6576101c2565b8063a22cb465146105a4578063b88d4fde146105cd578063c046372c146105f6578063c78f19f914610626576101c2565b8063715018a6116100d1578063715018a61461050e5780637c726b69146105255780638da5cb5b1461054e57806395d89b4114610579576101c2565b80636f1a0af51461046957806370a08231146104a657806370cbcb43146104e3576101c2565b8063243adbdd1161016457806342842e0e1161013e57806342842e0e1461038957806343d32ae7146103b25780634f6ccce7146103ef5780636352211e1461042c576101c2565b8063243adbdd146103055780632f745c591461032157806336b536be1461035e576101c2565b8063095ea7b3116101a0578063095ea7b31461026c57806318160ddd1461029557806321f422e5146102c057806323b872dd146102dc576101c2565b806301ffc9a7146101c757806306fdde0314610204578063081812fc1461022f575b600080fd5b3480156101d357600080fd5b506101ee60048036038101906101e9919061302b565b61071f565b6040516101fb9190613073565b60405180910390f35b34801561021057600080fd5b50610219610801565b604051610226919061311e565b60405180910390f35b34801561023b57600080fd5b5061025660048036038101906102519190613176565b610893565b60405161026391906131e4565b60405180910390f35b34801561027857600080fd5b50610293600480360381019061028e919061322b565b6108d9565b005b3480156102a157600080fd5b506102aa6109f0565b6040516102b7919061327a565b60405180910390f35b6102da60048036038101906102d59190613295565b6109fd565b005b3480156102e857600080fd5b5061030360048036038101906102fe91906132d5565b610b79565b005b61031f600480360381019061031a9190613176565b610bd9565b005b34801561032d57600080fd5b506103486004803603810190610343919061322b565b610d41565b604051610355919061327a565b60405180910390f35b34801561036a57600080fd5b50610373610de6565b6040516103809190613459565b60405180910390f35b34801561039557600080fd5b506103b060048036038101906103ab91906132d5565b610f80565b005b3480156103be57600080fd5b506103d960048036038101906103d491906135b0565b610fa0565b6040516103e69190613073565b60405180910390f35b3480156103fb57600080fd5b5061041660048036038101906104119190613176565b610fdc565b604051610423919061327a565b60405180910390f35b34801561043857600080fd5b50610453600480360381019061044e9190613176565b61104d565b60405161046091906131e4565b60405180910390f35b34801561047557600080fd5b50610490600480360381019061048b9190613176565b6110d3565b60405161049d919061364e565b60405180910390f35b3480156104b257600080fd5b506104cd60048036038101906104c89190613669565b611185565b6040516104da919061327a565b60405180910390f35b3480156104ef57600080fd5b506104f861123c565b6040516105059190613459565b60405180910390f35b34801561051a57600080fd5b506105236113a0565b005b34801561053157600080fd5b5061054c60048036038101906105479190613176565b6113b4565b005b34801561055a57600080fd5b50610563611409565b60405161057091906131e4565b60405180910390f35b34801561058557600080fd5b5061058e611433565b60405161059b919061311e565b60405180910390f35b3480156105b057600080fd5b506105cb60048036038101906105c691906136c2565b6114c5565b005b3480156105d957600080fd5b506105f460048036038101906105ef91906137a3565b6114db565b005b610610600480360381019061060b9190613826565b61153d565b60405161061d919061327a565b60405180910390f35b34801561063257600080fd5b5061063b61164d565b604051610648919061327a565b60405180910390f35b34801561065d57600080fd5b5061067860048036038101906106739190613176565b611653565b604051610685919061311e565b60405180910390f35b34801561069a57600080fd5b506106a3611765565b6040516106b0919061327a565b60405180910390f35b3480156106c557600080fd5b506106e060048036038101906106db9190613882565b611776565b6040516106ed9190613073565b60405180910390f35b34801561070257600080fd5b5061071d60048036038101906107189190613669565b61180a565b005b60007f80ac58cd000000000000000000000000000000000000000000000000000000007bffffffffffffffffffffffffffffffffffffffffffffffffffffffff1916827bffffffffffffffffffffffffffffffffffffffffffffffffffffffff191614806107ea57507f5b5e139f000000000000000000000000000000000000000000000000000000007bffffffffffffffffffffffffffffffffffffffffffffffffffffffff1916827bffffffffffffffffffffffffffffffffffffffffffffffffffffffff1916145b806107fa57506107f98261188d565b5b9050919050565b606060008054610810906138f1565b80601f016020809104026020016040519081016040528092919081815260200182805461083c906138f1565b80156108895780601f1061085e57610100808354040283529160200191610889565b820191906000526020600020905b81548152906001019060200180831161086c57829003601f168201915b5050505050905090565b600061089e826118f7565b6004600083815260200190815260200160002060009054906101000a900473ffffffffffffffffffffffffffffffffffffffff169050919050565b60006108e48261104d565b90508073ffffffffffffffffffffffffffffffffffffffff168373ffffffffffffffffffffffffffffffffffffffff1603610954576040517f08c379a000000000000000000000000000000000000000000000000000000000815260040161094b90613994565b60405180910390fd5b8073ffffffffffffffffffffffffffffffffffffffff16610973611942565b73ffffffffffffffffffffffffffffffffffffffff1614806109a257506109a18161099c611942565b611776565b5b6109e1576040517f08c379a00000000000000000000000000000000000000000000000000000000081526004016109d890613a26565b60405180910390fd5b6109eb838361194a565b505050565b6000600f80549050905090565b3373ffffffffffffffffffffffffffffffffffffffff16610a1d8361104d565b73ffffffffffffffffffffffffffffffffffffffff1614610a73576040517f08c379a0000000000000000000000000000000000000000000000000000000008152600401610a6a90613a92565b60405180910390fd5b60001515600c600084815260200190815260200160002060020160149054906101000a900460ff16151514610add576040517f08c379a0000000000000000000000000000000000000000000000000000000008152600401610ad490613afe565b60405180910390fd5b6008543414610b21576040517f08c379a0000000000000000000000000000000000000000000000000000000008152600401610b1890613b90565b60405180910390fd5b6001600c600084815260200190815260200160002060020160146101000a81548160ff02191690831515021790555080600c600084815260200190815260200160002060010181905550610b756009611a03565b5050565b610b8a610b84611942565b82611a19565b610bc9576040517f08c379a0000000000000000000000000000000000000000000000000000000008152600401610bc090613c22565b60405180910390fd5b610bd4838383611aae565b505050565b6000600c60008381526020019081526020016000206001015490506000610bff8361104d565b90508073ffffffffffffffffffffffffffffffffffffffff163373ffffffffffffffffffffffffffffffffffffffff1603610c6f576040517f08c379a0000000000000000000000000000000000000000000000000000000008152600401610c6690613c8e565b60405180910390fd5b813414610cb1576040517f08c379a0000000000000000000000000000000000000000000000000000000008152600401610ca890613cfa565b60405180910390fd5b6000600c600085815260200190815260200160002060020160146101000a81548160ff021916908315150217905550610cea6009611da7565b610cf5813385611aae565b8073ffffffffffffffffffffffffffffffffffffffff166108fc349081150290604051600060405180830381858888f19350505050158015610d3b573d6000803e3d6000fd5b50505050565b6000610d4c83611185565b8210610d8d576040517f08c379a0000000000000000000000000000000000000000000000000000000008152600401610d8490613d66565b60405180910390fd5b600d60008473ffffffffffffffffffffffffffffffffffffffff1673ffffffffffffffffffffffffffffffffffffffff168152602001908152602001600020600083815260200190815260200160002054905092915050565b60606000610df26109f0565b9050600080610e016009611e03565b67ffffffffffffffff811115610e1a57610e19613485565b5b604051908082528060200260200182016040528015610e5357816020015b610e40612f7f565b815260200190600190039081610e385790505b50905060005b83811015610f76576000610e6c82610fdc565b90506000600c60008381526020019081526020016000209050600115158160020160149054906101000a900460ff16151503610f61578060405180608001604052908160008201548152602001600182015481526020016002820160009054906101000a900473ffffffffffffffffffffffffffffffffffffffff1673ffffffffffffffffffffffffffffffffffffffff1673ffffffffffffffffffffffffffffffffffffffff1681526020016002820160149054906101000a900460ff161515151581525050848681518110610f4657610f45613d86565b5b6020026020010181905250600185610f5e9190613de4565b94505b50508080610f6e90613e18565b915050610e59565b5080935050505090565b610f9b838383604051806020016040528060008152506114db565b505050565b600060011515600b83604051610fb69190613e9c565b908152602001604051809103902060009054906101000a900460ff161515149050919050565b6000610fe66109f0565b8210611027576040517f08c379a000000000000000000000000000000000000000000000000000000000815260040161101e90613d66565b60405180910390fd5b600f828154811061103b5761103a613d86565b5b90600052602060002001549050919050565b60008061105983611e11565b9050600073ffffffffffffffffffffffffffffffffffffffff168173ffffffffffffffffffffffffffffffffffffffff16036110ca576040517f08c379a00000000000000000000000000000000000000000000000000000000081526004016110c190613eff565b60405180910390fd5b80915050919050565b6110db612f7f565b600c600083815260200190815260200160002060405180608001604052908160008201548152602001600182015481526020016002820160009054906101000a900473ffffffffffffffffffffffffffffffffffffffff1673ffffffffffffffffffffffffffffffffffffffff1673ffffffffffffffffffffffffffffffffffffffff1681526020016002820160149054906101000a900460ff1615151515815250509050919050565b60008073ffffffffffffffffffffffffffffffffffffffff168273ffffffffffffffffffffffffffffffffffffffff16036111f5576040517f08c379a00000000000000000000000000000000000000000000000000000000081526004016111ec90613f91565b60405180910390fd5b600360008373ffffffffffffffffffffffffffffffffffffffff1673ffffffffffffffffffffffffffffffffffffffff168152602001908152602001600020549050919050565b6060600061124933611185565b905060008167ffffffffffffffff81111561126757611266613485565b5b6040519080825280602002602001820160405280156112a057816020015b61128d612f7f565b8152602001906001900390816112855790505b50905060005b828110156113975760006112ba3383610d41565b90506000600c600083815260200190815260200160002090508060405180608001604052908160008201548152602001600182015481526020016002820160009054906101000a900473ffffffffffffffffffffffffffffffffffffffff1673ffffffffffffffffffffffffffffffffffffffff1673ffffffffffffffffffffffffffffffffffffffff1681526020016002820160149054906101000a900460ff16151515158152505084848151811061137757611376613d86565b5b60200260200101819052505050808061138f90613e18565b9150506112a6565b50809250505090565b6113a8611e4e565b6113b26000611ecc565b565b6113bc611e4e565b600081116113ff576040517f08c379a00000000000000000000000000000000000000000000000000000000081526004016113f690613ffd565b60405180910390fd5b8060088190555050565b6000600760009054906101000a900473ffffffffffffffffffffffffffffffffffffffff16905090565b606060018054611442906138f1565b80601f016020809104026020016040519081016040528092919081815260200182805461146e906138f1565b80156114bb5780601f10611490576101008083540402835291602001916114bb565b820191906000526020600020905b81548152906001019060200180831161149e57829003601f168201915b5050505050905090565b6114d76114d0611942565b8383611f92565b5050565b6114ec6114e6611942565b83611a19565b61152b576040517f08c379a000000000000000000000000000000000000000000000000000000000815260040161152290613c22565b60405180910390fd5b611537848484846120fe565b50505050565b600061154883610fa0565b15611588576040517f08c379a000000000000000000000000000000000000000000000000000000000815260040161157f90614069565b60405180910390fd5b60085434146115cc576040517f08c379a00000000000000000000000000000000000000000000000000000000081526004016115c390613b90565b60405180910390fd5b6115d6600a611a03565b6115e06009611a03565b60006115ec600a611e03565b90506115f8338261215a565b6116028185612178565b61160c81846121e5565b6001600b8560405161161e9190613e9c565b908152602001604051809103902060006101000a81548160ff0219169083151502179055508091505092915050565b60085481565b606061165e826118f7565b600060066000848152602001908152602001600020805461167e906138f1565b80601f01602080910402602001604051908101604052809291908181526020018280546116aa906138f1565b80156116f75780601f106116cc576101008083540402835291602001916116f7565b820191906000526020600020905b8154815290600101906020018083116116da57829003601f168201915b505050505090506000611708612335565b9050600081510361171d578192505050611760565b60008251111561175257808260405160200161173a929190614089565b60405160208183030381529060405292505050611760565b61175b8461234c565b925050505b919050565b60006117716009611e03565b905090565b6000600560008473ffffffffffffffffffffffffffffffffffffffff1673ffffffffffffffffffffffffffffffffffffffff16815260200190815260200160002060008373ffffffffffffffffffffffffffffffffffffffff1673ffffffffffffffffffffffffffffffffffffffff16815260200190815260200160002060009054906101000a900460ff16905092915050565b611812611e4e565b600073ffffffffffffffffffffffffffffffffffffffff168173ffffffffffffffffffffffffffffffffffffffff1603611881576040517f08c379a00000000000000000000000000000000000000000000000000000000081526004016118789061411f565b60405180910390fd5b61188a81611ecc565b50565b60007f01ffc9a7000000000000000000000000000000000000000000000000000000007bffffffffffffffffffffffffffffffffffffffffffffffffffffffff1916827bffffffffffffffffffffffffffffffffffffffffffffffffffffffff1916149050919050565b611900816123b4565b61193f576040517f08c379a000000000000000000000000000000000000000000000000000000000815260040161193690613eff565b60405180910390fd5b50565b600033905090565b816004600083815260200190815260200160002060006101000a81548173ffffffffffffffffffffffffffffffffffffffff021916908373ffffffffffffffffffffffffffffffffffffffff160217905550808273ffffffffffffffffffffffffffffffffffffffff166119bd8361104d565b73ffffffffffffffffffffffffffffffffffffffff167f8c5be1e5ebec7d5bd14f71427d1e84f3dd0314c0f7b2291e5b200ac8c7c3b92560405160405180910390a45050565b6001816000016000828254019250508190555050565b600080611a258361104d565b90508073ffffffffffffffffffffffffffffffffffffffff168473ffffffffffffffffffffffffffffffffffffffff161480611a675750611a668185611776565b5b80611aa557508373ffffffffffffffffffffffffffffffffffffffff16611a8d84610893565b73ffffffffffffffffffffffffffffffffffffffff16145b91505092915050565b8273ffffffffffffffffffffffffffffffffffffffff16611ace8261104d565b73ffffffffffffffffffffffffffffffffffffffff1614611b24576040517f08c379a0000000000000000000000000000000000000000000000000000000008152600401611b1b906141b1565b60405180910390fd5b600073ffffffffffffffffffffffffffffffffffffffff168273ffffffffffffffffffffffffffffffffffffffff1603611b93576040517f08c379a0000000000000000000000000000000000000000000000000000000008152600401611b8a90614243565b60405180910390fd5b611ba083838360016123f5565b8273ffffffffffffffffffffffffffffffffffffffff16611bc08261104d565b73ffffffffffffffffffffffffffffffffffffffff1614611c16576040517f08c379a0000000000000000000000000000000000000000000000000000000008152600401611c0d906141b1565b60405180910390fd5b6004600082815260200190815260200160002060006101000a81549073ffffffffffffffffffffffffffffffffffffffff02191690556001600360008573ffffffffffffffffffffffffffffffffffffffff1673ffffffffffffffffffffffffffffffffffffffff168152602001908152602001600020600082825403925050819055506001600360008473ffffffffffffffffffffffffffffffffffffffff1673ffffffffffffffffffffffffffffffffffffffff16815260200190815260200160002060008282540192505081905550816002600083815260200190815260200160002060006101000a81548173ffffffffffffffffffffffffffffffffffffffff021916908373ffffffffffffffffffffffffffffffffffffffff160217905550808273ffffffffffffffffffffffffffffffffffffffff168473ffffffffffffffffffffffffffffffffffffffff167fddf252ad1be2c89b69c2b068fc378daa952ba7f163c4a11628f55a4df523b3ef60405160405180910390a4611da2838383600161250a565b505050565b60008160000154905060008111611df3576040517f08c379a0000000000000000000000000000000000000000000000000000000008152600401611dea906142af565b60405180910390fd5b6001810382600001819055505050565b600081600001549050919050565b60006002600083815260200190815260200160002060009054906101000a900473ffffffffffffffffffffffffffffffffffffffff169050919050565b611e56611942565b73ffffffffffffffffffffffffffffffffffffffff16611e74611409565b73ffffffffffffffffffffffffffffffffffffffff1614611eca576040517f08c379a0000000000000000000000000000000000000000000000000000000008152600401611ec19061431b565b60405180910390fd5b565b6000600760009054906101000a900473ffffffffffffffffffffffffffffffffffffffff16905081600760006101000a81548173ffffffffffffffffffffffffffffffffffffffff021916908373ffffffffffffffffffffffffffffffffffffffff1602179055508173ffffffffffffffffffffffffffffffffffffffff168173ffffffffffffffffffffffffffffffffffffffff167f8be0079c531659141344cd1fd0a4f28419497f9722a3daafe3b4186f6b6457e060405160405180910390a35050565b8173ffffffffffffffffffffffffffffffffffffffff168373ffffffffffffffffffffffffffffffffffffffff1603612000576040517f08c379a0000000000000000000000000000000000000000000000000000000008152600401611ff790614387565b60405180910390fd5b80600560008573ffffffffffffffffffffffffffffffffffffffff1673ffffffffffffffffffffffffffffffffffffffff16815260200190815260200160002060008473ffffffffffffffffffffffffffffffffffffffff1673ffffffffffffffffffffffffffffffffffffffff16815260200190815260200160002060006101000a81548160ff0219169083151502179055508173ffffffffffffffffffffffffffffffffffffffff168373ffffffffffffffffffffffffffffffffffffffff167f17307eab39ab6107e8899845ad3d59bd9653f200f220920489ca2b5937696c31836040516120f19190613073565b60405180910390a3505050565b612109848484611aae565b61211584848484612510565b612154576040517f08c379a000000000000000000000000000000000000000000000000000000000815260040161214b90614419565b60405180910390fd5b50505050565b612174828260405180602001604052806000815250612697565b5050565b612181826123b4565b6121c0576040517f08c379a00000000000000000000000000000000000000000000000000000000081526004016121b7906144ab565b60405180910390fd5b806006600084815260200190815260200160002090816121e09190614677565b505050565b60008111612228576040517f08c379a000000000000000000000000000000000000000000000000000000000815260040161221f90614795565b60405180910390fd5b60405180608001604052808381526020018281526020013373ffffffffffffffffffffffffffffffffffffffff16815260200160011515815250600c6000848152602001908152602001600020600082015181600001556020820151816001015560408201518160020160006101000a81548173ffffffffffffffffffffffffffffffffffffffff021916908373ffffffffffffffffffffffffffffffffffffffff16021790555060608201518160020160146101000a81548160ff0219169083151502179055509050507f470031062672bc0246e132c723a729c4676710ec663a29e86c88678032daddea828233600160405161232994939291906147b5565b60405180910390a15050565b606060405180602001604052806000815250905090565b6060612357826118f7565b6000612361612335565b9050600081511161238157604051806020016040528060008152506123ac565b8061238b846126f2565b60405160200161239c929190614089565b6040516020818303038152906040525b915050919050565b60008073ffffffffffffffffffffffffffffffffffffffff166123d683611e11565b73ffffffffffffffffffffffffffffffffffffffff1614159050919050565b61240284848460016127c0565b600073ffffffffffffffffffffffffffffffffffffffff168473ffffffffffffffffffffffffffffffffffffffff16036124445761243f826128e6565b612483565b8273ffffffffffffffffffffffffffffffffffffffff168473ffffffffffffffffffffffffffffffffffffffff161461248257612481848361292f565b5b5b600073ffffffffffffffffffffffffffffffffffffffff168373ffffffffffffffffffffffffffffffffffffffff16036124c5576124c082612a9c565b612504565b8373ffffffffffffffffffffffffffffffffffffffff168373ffffffffffffffffffffffffffffffffffffffff1614612503576125028383612b6d565b5b5b50505050565b50505050565b60006125318473ffffffffffffffffffffffffffffffffffffffff16612bec565b1561268a578373ffffffffffffffffffffffffffffffffffffffff1663150b7a0261255a611942565b8786866040518563ffffffff1660e01b815260040161257c949392919061484f565b6020604051808303816000875af19250505080156125b857506040513d601f19601f820116820180604052508101906125b591906148b0565b60015b61263a573d80600081146125e8576040519150601f19603f3d011682016040523d82523d6000602084013e6125ed565b606091505b506000815103612632576040517f08c379a000000000000000000000000000000000000000000000000000000000815260040161262990614419565b60405180910390fd5b805181602001fd5b63150b7a0260e01b7bffffffffffffffffffffffffffffffffffffffffffffffffffffffff1916817bffffffffffffffffffffffffffffffffffffffffffffffffffffffff19161491505061268f565b600190505b949350505050565b6126a18383612c0f565b6126ae6000848484612510565b6126ed576040517f08c379a00000000000000000000000000000000000000000000000000000000081526004016126e490614419565b60405180910390fd5b505050565b60606000600161270184612e2c565b01905060008167ffffffffffffffff8111156127205761271f613485565b5b6040519080825280601f01601f1916602001820160405280156127525781602001600182028036833780820191505090505b509050600082602001820190505b6001156127b5578080600190039150507f3031323334353637383961626364656600000000000000000000000000000000600a86061a8153600a85816127a9576127a86148dd565b5b04945060008503612760575b819350505050919050565b60018111156128e057600073ffffffffffffffffffffffffffffffffffffffff168473ffffffffffffffffffffffffffffffffffffffff16146128545780600360008673ffffffffffffffffffffffffffffffffffffffff1673ffffffffffffffffffffffffffffffffffffffff168152602001908152602001600020600082825461284c919061490c565b925050819055505b600073ffffffffffffffffffffffffffffffffffffffff168373ffffffffffffffffffffffffffffffffffffffff16146128df5780600360008573ffffffffffffffffffffffffffffffffffffffff1673ffffffffffffffffffffffffffffffffffffffff16815260200190815260200160002060008282546128d79190613de4565b925050819055505b5b50505050565b600f805490506010600083815260200190815260200160002081905550600f81908060018154018082558091505060019003906000526020600020016000909190919091505550565b6000600161293c84611185565b612946919061490c565b90506000600e6000848152602001908152602001600020549050818114612a2b576000600d60008673ffffffffffffffffffffffffffffffffffffffff1673ffffffffffffffffffffffffffffffffffffffff168152602001908152602001600020600084815260200190815260200160002054905080600d60008773ffffffffffffffffffffffffffffffffffffffff1673ffffffffffffffffffffffffffffffffffffffff168152602001908152602001600020600084815260200190815260200160002081905550816010600083815260200190815260200160002081905550505b600e600084815260200190815260200160002060009055600d60008573ffffffffffffffffffffffffffffffffffffffff1673ffffffffffffffffffffffffffffffffffffffff16815260200190815260200160002060008381526020019081526020016000206000905550505050565b60006001600f80549050612ab0919061490c565b90506000601060008481526020019081526020016000205490506000600f8381548110612ae057612adf613d86565b5b9060005260206000200154905080600f8381548110612b0257612b01613d86565b5b90600052602060002001819055508160106000838152602001908152602001600020819055506010600085815260200190815260200160002060009055600f805480612b5157612b50614940565b5b6001900381819060005260206000200160009055905550505050565b6000612b7883611185565b905081600d60008573ffffffffffffffffffffffffffffffffffffffff1673ffffffffffffffffffffffffffffffffffffffff16815260200190815260200160002060008381526020019081526020016000208190555080600e600084815260200190815260200160002081905550505050565b6000808273ffffffffffffffffffffffffffffffffffffffff163b119050919050565b600073ffffffffffffffffffffffffffffffffffffffff168273ffffffffffffffffffffffffffffffffffffffff1603612c7e576040517f08c379a0000000000000000000000000000000000000000000000000000000008152600401612c75906149bb565b60405180910390fd5b612c87816123b4565b15612cc7576040517f08c379a0000000000000000000000000000000000000000000000000000000008152600401612cbe90614a27565b60405180910390fd5b612cd56000838360016123f5565b612cde816123b4565b15612d1e576040517f08c379a0000000000000000000000000000000000000000000000000000000008152600401612d1590614a27565b60405180910390fd5b6001600360008473ffffffffffffffffffffffffffffffffffffffff1673ffffffffffffffffffffffffffffffffffffffff16815260200190815260200160002060008282540192505081905550816002600083815260200190815260200160002060006101000a81548173ffffffffffffffffffffffffffffffffffffffff021916908373ffffffffffffffffffffffffffffffffffffffff160217905550808273ffffffffffffffffffffffffffffffffffffffff16600073ffffffffffffffffffffffffffffffffffffffff167fddf252ad1be2c89b69c2b068fc378daa952ba7f163c4a11628f55a4df523b3ef60405160405180910390a4612e2860008383600161250a565b5050565b600080600090507a184f03e93ff9f4daa797ed6e38ed64bf6a1f0100000000000000008310612e8a577a184f03e93ff9f4daa797ed6e38ed64bf6a1f0100000000000000008381612e8057612e7f6148dd565b5b0492506040810190505b6d04ee2d6d415b85acef81000000008310612ec7576d04ee2d6d415b85acef81000000008381612ebd57612ebc6148dd565b5b0492506020810190505b662386f26fc100008310612ef657662386f26fc100008381612eec57612eeb6148dd565b5b0492506010810190505b6305f5e1008310612f1f576305f5e1008381612f1557612f146148dd565b5b0492506008810190505b6127108310612f44576127108381612f3a57612f396148dd565b5b0492506004810190505b60648310612f675760648381612f5d57612f5c6148dd565b5b0492506002810190505b600a8310612f76576001810190505b80915050919050565b60405180608001604052806000815260200160008152602001600073ffffffffffffffffffffffffffffffffffffffff1681526020016000151581525090565b6000604051905090565b600080fd5b600080fd5b60007fffffffff0000000000000000000000000000000000000000000000000000000082169050919050565b61300881612fd3565b811461301357600080fd5b50565b60008135905061302581612fff565b92915050565b60006020828403121561304157613040612fc9565b5b600061304f84828501613016565b91505092915050565b60008115159050919050565b61306d81613058565b82525050565b60006020820190506130886000830184613064565b92915050565b600081519050919050565b600082825260208201905092915050565b60005b838110156130c85780820151818401526020810190506130ad565b60008484015250505050565b6000601f19601f8301169050919050565b60006130f08261308e565b6130fa8185613099565b935061310a8185602086016130aa565b613113816130d4565b840191505092915050565b6000602082019050818103600083015261313881846130e5565b905092915050565b6000819050919050565b61315381613140565b811461315e57600080fd5b50565b6000813590506131708161314a565b92915050565b60006020828403121561318c5761318b612fc9565b5b600061319a84828501613161565b91505092915050565b600073ffffffffffffffffffffffffffffffffffffffff82169050919050565b60006131ce826131a3565b9050919050565b6131de816131c3565b82525050565b60006020820190506131f960008301846131d5565b92915050565b613208816131c3565b811461321357600080fd5b50565b600081359050613225816131ff565b92915050565b6000806040838503121561324257613241612fc9565b5b600061325085828601613216565b925050602061326185828601613161565b9150509250929050565b61327481613140565b82525050565b600060208201905061328f600083018461326b565b92915050565b600080604083850312156132ac576132ab612fc9565b5b60006132ba85828601613161565b92505060206132cb85828601613161565b9150509250929050565b6000806000606084860312156132ee576132ed612fc9565b5b60006132fc86828701613216565b935050602061330d86828701613216565b925050604061331e86828701613161565b9150509250925092565b600081519050919050565b600082825260208201905092915050565b6000819050602082019050919050565b61335d81613140565b82525050565b61336c816131c3565b82525050565b61337b81613058565b82525050565b6080820160008201516133976000850182613354565b5060208201516133aa6020850182613354565b5060408201516133bd6040850182613363565b5060608201516133d06060850182613372565b50505050565b60006133e28383613381565b60808301905092915050565b6000602082019050919050565b600061340682613328565b6134108185613333565b935061341b83613344565b8060005b8381101561344c57815161343388826133d6565b975061343e836133ee565b92505060018101905061341f565b5085935050505092915050565b6000602082019050818103600083015261347381846133fb565b905092915050565b600080fd5b600080fd5b7f4e487b7100000000000000000000000000000000000000000000000000000000600052604160045260246000fd5b6134bd826130d4565b810181811067ffffffffffffffff821117156134dc576134db613485565b5b80604052505050565b60006134ef612fbf565b90506134fb82826134b4565b919050565b600067ffffffffffffffff82111561351b5761351a613485565b5b613524826130d4565b9050602081019050919050565b82818337600083830152505050565b600061355361354e84613500565b6134e5565b90508281526020810184848401111561356f5761356e613480565b5b61357a848285613531565b509392505050565b600082601f8301126135975761359661347b565b5b81356135a7848260208601613540565b91505092915050565b6000602082840312156135c6576135c5612fc9565b5b600082013567ffffffffffffffff8111156135e4576135e3612fce565b5b6135f084828501613582565b91505092915050565b60808201600082015161360f6000850182613354565b5060208201516136226020850182613354565b5060408201516136356040850182613363565b5060608201516136486060850182613372565b50505050565b600060808201905061366360008301846135f9565b92915050565b60006020828403121561367f5761367e612fc9565b5b600061368d84828501613216565b91505092915050565b61369f81613058565b81146136aa57600080fd5b50565b6000813590506136bc81613696565b92915050565b600080604083850312156136d9576136d8612fc9565b5b60006136e785828601613216565b92505060206136f8858286016136ad565b9150509250929050565b600067ffffffffffffffff82111561371d5761371c613485565b5b613726826130d4565b9050602081019050919050565b600061374661374184613702565b6134e5565b90508281526020810184848401111561376257613761613480565b5b61376d848285613531565b509392505050565b600082601f83011261378a5761378961347b565b5b813561379a848260208601613733565b91505092915050565b600080600080608085870312156137bd576137bc612fc9565b5b60006137cb87828801613216565b94505060206137dc87828801613216565b93505060406137ed87828801613161565b925050606085013567ffffffffffffffff81111561380e5761380d612fce565b5b61381a87828801613775565b91505092959194509250565b6000806040838503121561383d5761383c612fc9565b5b600083013567ffffffffffffffff81111561385b5761385a612fce565b5b61386785828601613582565b925050602061387885828601613161565b9150509250929050565b6000806040838503121561389957613898612fc9565b5b60006138a785828601613216565b92505060206138b885828601613216565b9150509250929050565b7f4e487b7100000000000000000000000000000000000000000000000000000000600052602260045260246000fd5b6000600282049050600182168061390957607f821691505b60208210810361391c5761391b6138c2565b5b50919050565b7f4552433732313a20617070726f76616c20746f2063757272656e74206f776e6560008201527f7200000000000000000000000000000000000000000000000000000000000000602082015250565b600061397e602183613099565b915061398982613922565b604082019050919050565b600060208201905081810360008301526139ad81613971565b9050919050565b7f4552433732313a20617070726f76652063616c6c6572206973206e6f7420746f60008201527f6b656e206f776e6572206f7220617070726f76656420666f7220616c6c000000602082015250565b6000613a10603d83613099565b9150613a1b826139b4565b604082019050919050565b60006020820190508181036000830152613a3f81613a03565b9050919050565b7f596f7520617265206e6f74206f776e6572206f662074686973204e46542e0000600082015250565b6000613a7c601e83613099565b9150613a8782613a46565b602082019050919050565b60006020820190508181036000830152613aab81613a6f565b9050919050565b7f4974656d20697320616c7265616479206f6e2073616c652e0000000000000000600082015250565b6000613ae8601883613099565b9150613af382613ab2565b602082019050919050565b60006020820190508181036000830152613b1781613adb565b9050919050565b7f5072696365206d75737420626520657175616c20746f206c697374696e67207060008201527f726963652e000000000000000000000000000000000000000000000000000000602082015250565b6000613b7a602583613099565b9150613b8582613b1e565b604082019050919050565b60006020820190508181036000830152613ba981613b6d565b9050919050565b7f4552433732313a2063616c6c6572206973206e6f7420746f6b656e206f776e6560008201527f72206f7220617070726f76656400000000000000000000000000000000000000602082015250565b6000613c0c602d83613099565b9150613c1782613bb0565b604082019050919050565b60006020820190508181036000830152613c3b81613bff565b9050919050565b7f596f7520616c7265616479206f776e2074686973204e46542e00000000000000600082015250565b6000613c78601983613099565b9150613c8382613c42565b602082019050919050565b60006020820190508181036000830152613ca781613c6b565b9050919050565b7f506c65617365207375626d6974207468652061736b696e672070726963652e00600082015250565b6000613ce4601f83613099565b9150613cef82613cae565b602082019050919050565b60006020820190508181036000830152613d1381613cd7565b9050919050565b7f496e646578206f7574206f6620626f756e647300000000000000000000000000600082015250565b6000613d50601383613099565b9150613d5b82613d1a565b602082019050919050565b60006020820190508181036000830152613d7f81613d43565b9050919050565b7f4e487b7100000000000000000000000000000000000000000000000000000000600052603260045260246000fd5b7f4e487b7100000000000000000000000000000000000000000000000000000000600052601160045260246000fd5b6000613def82613140565b9150613dfa83613140565b9250828201905080821115613e1257613e11613db5565b5b92915050565b6000613e2382613140565b91507fffffffffffffffffffffffffffffffffffffffffffffffffffffffffffffffff8203613e5557613e54613db5565b5b600182019050919050565b600081905092915050565b6000613e768261308e565b613e808185613e60565b9350613e908185602086016130aa565b80840191505092915050565b6000613ea88284613e6b565b915081905092915050565b7f4552433732313a20696e76616c696420746f6b656e2049440000000000000000600082015250565b6000613ee9601883613099565b9150613ef482613eb3565b602082019050919050565b60006020820190508181036000830152613f1881613edc565b9050919050565b7f4552433732313a2061646472657373207a65726f206973206e6f74206120766160008201527f6c6964206f776e65720000000000000000000000000000000000000000000000602082015250565b6000613f7b602983613099565b9150613f8682613f1f565b604082019050919050565b60006020820190508181036000830152613faa81613f6e565b9050919050565b7f5072696365206d757374206265206174206c656173742031207765692e000000600082015250565b6000613fe7601d83613099565b9150613ff282613fb1565b602082019050919050565b6000602082019050818103600083015261401681613fda565b9050919050565b7f546f6b656e2055524920616c7265616479206578697374732e00000000000000600082015250565b6000614053601983613099565b915061405e8261401d565b602082019050919050565b6000602082019050818103600083015261408281614046565b9050919050565b60006140958285613e6b565b91506140a18284613e6b565b91508190509392505050565b7f4f776e61626c653a206e6577206f776e657220697320746865207a65726f206160008201527f6464726573730000000000000000000000000000000000000000000000000000602082015250565b6000614109602683613099565b9150614114826140ad565b604082019050919050565b60006020820190508181036000830152614138816140fc565b9050919050565b7f4552433732313a207472616e736665722066726f6d20696e636f72726563742060008201527f6f776e6572000000000000000000000000000000000000000000000000000000602082015250565b600061419b602583613099565b91506141a68261413f565b604082019050919050565b600060208201905081810360008301526141ca8161418e565b9050919050565b7f4552433732313a207472616e7366657220746f20746865207a65726f2061646460008201527f7265737300000000000000000000000000000000000000000000000000000000602082015250565b600061422d602483613099565b9150614238826141d1565b604082019050919050565b6000602082019050818103600083015261425c81614220565b9050919050565b7f436f756e7465723a2064656372656d656e74206f766572666c6f770000000000600082015250565b6000614299601b83613099565b91506142a482614263565b602082019050919050565b600060208201905081810360008301526142c88161428c565b9050919050565b7f4f776e61626c653a2063616c6c6572206973206e6f7420746865206f776e6572600082015250565b6000614305602083613099565b9150614310826142cf565b602082019050919050565b60006020820190508181036000830152614334816142f8565b9050919050565b7f4552433732313a20617070726f766520746f2063616c6c657200000000000000600082015250565b6000614371601983613099565b915061437c8261433b565b602082019050919050565b600060208201905081810360008301526143a081614364565b9050919050565b7f4552433732313a207472616e7366657220746f206e6f6e20455243373231526560008201527f63656976657220696d706c656d656e7465720000000000000000000000000000602082015250565b6000614403603283613099565b915061440e826143a7565b604082019050919050565b60006020820190508181036000830152614432816143f6565b9050919050565b7f45524337323155524953746f726167653a2055524920736574206f66206e6f6e60008201527f6578697374656e7420746f6b656e000000000000000000000000000000000000602082015250565b6000614495602e83613099565b91506144a082614439565b604082019050919050565b600060208201905081810360008301526144c481614488565b9050919050565b60008190508160005260206000209050919050565b60006020601f8301049050919050565b600082821b905092915050565b60006008830261452d7fffffffffffffffffffffffffffffffffffffffffffffffffffffffffffffffff826144f0565b61453786836144f0565b95508019841693508086168417925050509392505050565b6000819050919050565b600061457461456f61456a84613140565b61454f565b613140565b9050919050565b6000819050919050565b61458e83614559565b6145a261459a8261457b565b8484546144fd565b825550505050565b600090565b6145b76145aa565b6145c2818484614585565b505050565b5b818110156145e6576145db6000826145af565b6001810190506145c8565b5050565b601f82111561462b576145fc816144cb565b614605846144e0565b81016020851015614614578190505b614628614620856144e0565b8301826145c7565b50505b505050565b600082821c905092915050565b600061464e60001984600802614630565b1980831691505092915050565b6000614667838361463d565b9150826002028217905092915050565b6146808261308e565b67ffffffffffffffff81111561469957614698613485565b5b6146a382546138f1565b6146ae8282856145ea565b600060209050601f8311600181146146e157600084156146cf578287015190505b6146d9858261465b565b865550614741565b601f1984166146ef866144cb565b60005b82811015614717578489015182556001820191506020850194506020810190506146f2565b868310156147345784890151614730601f89168261463d565b8355505b6001600288020188555050505b505050505050565b7f5072696365206d757374206265206174206c6561736520312077656900000000600082015250565b600061477f601c83613099565b915061478a82614749565b602082019050919050565b600060208201905081810360008301526147ae81614772565b9050919050565b60006080820190506147ca600083018761326b565b6147d7602083018661326b565b6147e460408301856131d5565b6147f16060830184613064565b95945050505050565b600081519050919050565b600082825260208201905092915050565b6000614821826147fa565b61482b8185614805565b935061483b8185602086016130aa565b614844816130d4565b840191505092915050565b600060808201905061486460008301876131d5565b61487160208301866131d5565b61487e604083018561326b565b81810360608301526148908184614816565b905095945050505050565b6000815190506148aa81612fff565b92915050565b6000602082840312156148c6576148c5612fc9565b5b60006148d48482850161489b565b91505092915050565b7f4e487b7100000000000000000000000000000000000000000000000000000000600052601260045260246000fd5b600061491782613140565b915061492283613140565b925082820390508181111561493a57614939613db5565b5b92915050565b7f4e487b7100000000000000000000000000000000000000000000000000000000600052603160045260246000fd5b7f4552433732313a206d696e7420746f20746865207a65726f2061646472657373600082015250565b60006149a5602083613099565b91506149b08261496f565b602082019050919050565b600060208201905081810360008301526149d481614998565b9050919050565b7f4552433732313a20746f6b656e20616c7265616479206d696e74656400000000600082015250565b6000614a11601c83613099565b9150614a1c826149db565b602082019050919050565b60006020820190508181036000830152614a4081614a04565b905091905056fea264697066735822122013c811a0c19c02d4eec8fdcda4b959b684a57aae5e2a36ff79b3facae3637b9664736f6c63430008110033",
  "immutableReferences": {},
  "source": "// SPDX-License-Identifier: MIT\r\npragma solidity >=0.4.22 <0.9.0;\r\n\r\nimport \"@openzeppelin/contracts/token/ERC721/extensions/ERC721URIStorage.sol\";\r\nimport \"@openzeppelin/contracts/utils/Counters.sol\";\r\nimport \"@openzeppelin/contracts/access/Ownable.sol\";\r\n\r\ncontract NftMarket is ERC721URIStorage, Ownable {\r\n    using Counters for Counters.Counter;\r\n\r\n    struct NftItem {\r\n        uint256 tokenId;\r\n        uint256 price;\r\n        address creator;\r\n        bool isListed;\r\n    }\r\n\r\n    uint256 public listingPrice = 0.025 ether;\r\n\r\n    Counters.Counter private _listedItems;\r\n    Counters.Counter private _tokenIds;\r\n\r\n    mapping(string => bool) private _usedTokenURIs;\r\n    mapping(uint256 => NftItem) private _idToNftItem;\r\n\r\n    mapping(address => mapping(uint256 => uint256)) private _ownedTokens;\r\n    mapping(uint256 => uint256) private _idToOwnedIndex;\r\n\r\n    // all tokenIds in the array\r\n    uint256[] private _allNfts;\r\n    mapping(uint256 => uint256) private _idToNftIndex;\r\n\r\n    event NftItemCreated(\r\n        uint256 tokenId,\r\n        uint256 price,\r\n        address creator,\r\n        bool isListed\r\n    );\r\n\r\n    constructor() ERC721(\"CreaturesNFT\", \"CNFT\") {}\r\n\r\n    function setListingPrice(uint256 newPrice) external onlyOwner {\r\n        require(newPrice > 0, \"Price must be at least 1 wei.\");\r\n        listingPrice = newPrice;\r\n    }\r\n\r\n    function getNftItem(uint256 tokenId) public view returns (NftItem memory) {\r\n        return _idToNftItem[tokenId];\r\n    }\r\n\r\n    function listedItemsCount() public view returns (uint256) {\r\n        return _listedItems.current();\r\n    }\r\n\r\n    function tokenURIExists(string memory tokenURI) public view returns (bool) {\r\n        return _usedTokenURIs[tokenURI] == true;\r\n    }\r\n\r\n    function totalSupply() public view returns (uint256) {\r\n        return _allNfts.length;\r\n    }\r\n\r\n    function tokenByIndex(uint256 index) public view returns (uint256) {\r\n        require(index < totalSupply(), \"Index out of bounds\");\r\n        return _allNfts[index];\r\n    }\r\n\r\n    function tokenOfOwnerByIndex(address owner, uint256 index)\r\n        public\r\n        view\r\n        returns (uint256)\r\n    {\r\n        require(index < ERC721.balanceOf(owner), \"Index out of bounds\");\r\n        return _ownedTokens[owner][index];\r\n    }\r\n\r\n    function getAllNftsOnSale() public view returns (NftItem[] memory) {\r\n        uint256 allItemsCounts = totalSupply();\r\n        uint256 currentIndex = 0;\r\n        NftItem[] memory items = new NftItem[](_listedItems.current());\r\n\r\n        for (uint256 i = 0; i < allItemsCounts; i++) {\r\n            uint256 tokenId = tokenByIndex(i);\r\n            NftItem storage item = _idToNftItem[tokenId];\r\n\r\n            if (item.isListed == true) {\r\n                items[currentIndex] = item;\r\n                currentIndex += 1;\r\n            }\r\n        }\r\n        return items;\r\n    }\r\n\r\n    function getOwnedNfts() public view returns (NftItem[] memory) {\r\n        uint256 ownedItemsCount = ERC721.balanceOf(msg.sender);\r\n        NftItem[] memory items = new NftItem[](ownedItemsCount);\r\n\r\n        for (uint256 i = 0; i < ownedItemsCount; i++) {\r\n            uint256 tokenId = tokenOfOwnerByIndex(msg.sender, i);\r\n            NftItem storage item = _idToNftItem[tokenId];\r\n            items[i] = item;\r\n        }\r\n\r\n        return items;\r\n    }\r\n\r\n    // // _beforeTokenTransfer will be called inside _burn funtion\r\n    // function burnToken(uint256 tokenId) public {\r\n    //     _burn(tokenId);\r\n    // }\r\n\r\n    function mintToken(string memory tokenURI, uint256 price)\r\n        public\r\n        payable\r\n        returns (uint256)\r\n    {\r\n        require(!tokenURIExists(tokenURI), \"Token URI already exists.\");\r\n        require(\r\n            msg.value == listingPrice,\r\n            \"Price must be equal to listing price.\"\r\n        );\r\n\r\n        _tokenIds.increment();\r\n        _listedItems.increment();\r\n\r\n        uint256 newTokenId = _tokenIds.current();\r\n\r\n        _safeMint(msg.sender, newTokenId);\r\n        _setTokenURI(newTokenId, tokenURI);\r\n        createNftItem(newTokenId, price);\r\n        _usedTokenURIs[tokenURI] = true;\r\n\r\n        return newTokenId;\r\n    }\r\n\r\n    function buyNft(uint256 tokenId) public payable {\r\n        uint256 price = _idToNftItem[tokenId].price;\r\n        address owner = ERC721.ownerOf(tokenId);\r\n\r\n        require(msg.sender != owner, \"You already own this NFT.\"); //msg.sender should not be equal to owner\r\n        require(msg.value == price, \"Please submit the asking price.\"); // msg.value should be equal to proce of NFT\r\n\r\n        _idToNftItem[tokenId].isListed = false;\r\n        _listedItems.decrement();\r\n\r\n        _transfer(owner, msg.sender, tokenId);\r\n\r\n        payable(owner).transfer(msg.value);\r\n    }\r\n\r\n    function placeNftOnSale(uint256 tokenId, uint256 newPrice) public payable {\r\n        require(\r\n            ERC721.ownerOf(tokenId) == msg.sender,\r\n            \"You are not owner of this NFT.\"\r\n        );\r\n        require(\r\n            _idToNftItem[tokenId].isListed == false,\r\n            \"Item is already on sale.\"\r\n        );\r\n        require(\r\n            msg.value == listingPrice,\r\n            \"Price must be equal to listing price.\"\r\n        );\r\n\r\n        _idToNftItem[tokenId].isListed = true;\r\n        _idToNftItem[tokenId].price = newPrice;\r\n        _listedItems.increment();\r\n    }\r\n\r\n    function createNftItem(uint256 tokenId, uint256 price) private {\r\n        require(price > 0, \"Price must be at lease 1 wei\");\r\n\r\n        _idToNftItem[tokenId] = NftItem(tokenId, price, msg.sender, true);\r\n\r\n        emit NftItemCreated(tokenId, price, msg.sender, true);\r\n    }\r\n\r\n    function _beforeTokenTransfer(\r\n        address from,\r\n        address to,\r\n        uint256 tokenId,\r\n        uint256\r\n    ) internal virtual override {\r\n        super._beforeTokenTransfer(from, to, tokenId, 1);\r\n\r\n        if (from == address(0)) {\r\n            _addTokenToAllTokensEnumeration(tokenId);\r\n        } else if (from != to) {\r\n            _removeTokenFromOwnerEnumeration(from, tokenId);\r\n        }\r\n\r\n        if (to == address(0)) {\r\n            _removeTokenFromAllTokensEnumeration(tokenId);\r\n        } else if (to != from) {\r\n            _addTokenToOwnerEnumeration(to, tokenId);\r\n        }\r\n    }\r\n\r\n    function _addTokenToAllTokensEnumeration(uint256 tokenId) private {\r\n        _idToNftIndex[tokenId] = _allNfts.length;\r\n        _allNfts.push(tokenId);\r\n    }\r\n\r\n    function _addTokenToOwnerEnumeration(address to, uint256 tokenId) private {\r\n        uint256 length = ERC721.balanceOf(to);\r\n\r\n        _ownedTokens[to][length] = tokenId;\r\n        _idToOwnedIndex[tokenId] = length;\r\n    }\r\n\r\n    function _removeTokenFromOwnerEnumeration(address from, uint256 tokenId)\r\n        private\r\n    {\r\n        uint256 lastTokenIndex = ERC721.balanceOf(from) - 1;\r\n        uint256 tokenIndex = _idToOwnedIndex[tokenId];\r\n\r\n        if (tokenIndex != lastTokenIndex) {\r\n            uint256 lastTokenId = _ownedTokens[from][lastTokenIndex];\r\n\r\n            _ownedTokens[from][tokenIndex] = lastTokenId;\r\n            _idToNftIndex[lastTokenId] = tokenIndex;\r\n        }\r\n\r\n        delete _idToOwnedIndex[tokenId];\r\n        delete _ownedTokens[from][lastTokenIndex];\r\n    }\r\n\r\n    function _removeTokenFromAllTokensEnumeration(uint256 tokenId) private {\r\n        uint256 lastTokenIndex = _allNfts.length - 1;\r\n        uint256 tokenIndex = _idToNftIndex[tokenId];\r\n        uint256 lastTokenId = _allNfts[lastTokenIndex];\r\n\r\n        _allNfts[tokenIndex] = lastTokenId;\r\n        _idToNftIndex[lastTokenId] = tokenIndex;\r\n\r\n        delete _idToNftIndex[tokenId];\r\n        _allNfts.pop();\r\n    }\r\n}\r\n",
  "sourcePath": "F:\\Github\\nextjs-nft-marketplace\\contracts\\NftMarket.sol",
  "compiler": {
    "name": "solc",
    "version": "0.8.17+commit.8df45f5f.Emscripten.clang"
  },
  "schemaVersion": "3.4.11",
  "updatedAt": "2023-01-28T11:49:42.374Z",
  "networkType": "ethereum",
  "devdoc": {
    "kind": "dev",
    "methods": {
      "approve(address,uint256)": {
        "details": "See {IERC721-approve}."
      },
      "balanceOf(address)": {
        "details": "See {IERC721-balanceOf}."
      },
      "getApproved(uint256)": {
        "details": "See {IERC721-getApproved}."
      },
      "isApprovedForAll(address,address)": {
        "details": "See {IERC721-isApprovedForAll}."
      },
      "name()": {
        "details": "See {IERC721Metadata-name}."
      },
      "owner()": {
        "details": "Returns the address of the current owner."
      },
      "ownerOf(uint256)": {
        "details": "See {IERC721-ownerOf}."
      },
      "renounceOwnership()": {
        "details": "Leaves the contract without owner. It will not be possible to call `onlyOwner` functions anymore. Can only be called by the current owner. NOTE: Renouncing ownership will leave the contract without an owner, thereby removing any functionality that is only available to the owner."
      },
      "safeTransferFrom(address,address,uint256)": {
        "details": "See {IERC721-safeTransferFrom}."
      },
      "safeTransferFrom(address,address,uint256,bytes)": {
        "details": "See {IERC721-safeTransferFrom}."
      },
      "setApprovalForAll(address,bool)": {
        "details": "See {IERC721-setApprovalForAll}."
      },
      "supportsInterface(bytes4)": {
        "details": "See {IERC165-supportsInterface}."
      },
      "symbol()": {
        "details": "See {IERC721Metadata-symbol}."
      },
      "tokenURI(uint256)": {
        "details": "See {IERC721Metadata-tokenURI}."
      },
      "transferFrom(address,address,uint256)": {
        "details": "See {IERC721-transferFrom}."
      },
      "transferOwnership(address)": {
        "details": "Transfers ownership of the contract to a new account (`newOwner`). Can only be called by the current owner."
      }
    },
    "version": 1
  },
  "userdoc": {
    "kind": "user",
    "methods": {},
    "version": 1
  }
}